{
  "_format": "hh-sol-artifact-1",
  "contractName": "QuickSplit",
  "sourceName": "contracts/QuickSplit.sol",
  "abi": [
    {
      "inputs": [],
      "stateMutability": "nonpayable",
      "type": "constructor"
    },
    {
      "inputs": [
        {
          "internalType": "address",
          "name": "owner",
          "type": "address"
        }
      ],
      "name": "OwnableInvalidOwner",
      "type": "error"
    },
    {
      "inputs": [
        {
          "internalType": "address",
          "name": "account",
          "type": "address"
        }
      ],
      "name": "OwnableUnauthorizedAccount",
      "type": "error"
    },
    {
      "inputs": [],
      "name": "ReentrancyGuardReentrantCall",
      "type": "error"
    },
    {
      "inputs": [
        {
          "internalType": "address",
          "name": "token",
          "type": "address"
        }
      ],
      "name": "SafeERC20FailedOperation",
      "type": "error"
    },
    {
      "anonymous": false,
      "inputs": [
        {
          "indexed": true,
          "internalType": "uint256",
          "name": "splitId",
          "type": "uint256"
        },
        {
          "indexed": true,
          "internalType": "address",
          "name": "participant",
          "type": "address"
        },
        {
          "indexed": false,
          "internalType": "uint256",
          "name": "amount",
          "type": "uint256"
        }
      ],
      "name": "Contributed",
      "type": "event"
    },
    {
      "anonymous": false,
      "inputs": [
        {
          "indexed": true,
          "internalType": "address",
          "name": "previousOwner",
          "type": "address"
        },
        {
          "indexed": true,
          "internalType": "address",
          "name": "newOwner",
          "type": "address"
        }
      ],
      "name": "OwnershipTransferred",
      "type": "event"
    },
    {
      "anonymous": false,
      "inputs": [
        {
          "indexed": true,
          "internalType": "uint256",
          "name": "splitId",
          "type": "uint256"
        },
        {
          "indexed": true,
          "internalType": "address",
          "name": "creator",
          "type": "address"
        },
        {
          "indexed": false,
          "internalType": "uint256",
          "name": "totalAmount",
          "type": "uint256"
        }
      ],
      "name": "Settled",
      "type": "event"
    },
    {
      "anonymous": false,
      "inputs": [
        {
          "indexed": true,
          "internalType": "uint256",
          "name": "splitId",
          "type": "uint256"
        },
        {
          "indexed": true,
          "internalType": "address",
          "name": "creator",
          "type": "address"
        },
        {
          "indexed": false,
          "internalType": "uint256",
          "name": "refundAmount",
          "type": "uint256"
        }
      ],
      "name": "SplitCancelled",
      "type": "event"
    },
    {
      "anonymous": false,
      "inputs": [
        {
          "indexed": true,
          "internalType": "uint256",
          "name": "splitId",
          "type": "uint256"
        },
        {
          "indexed": true,
          "internalType": "address",
          "name": "creator",
          "type": "address"
        },
        {
          "indexed": false,
          "internalType": "uint256",
          "name": "amount",
          "type": "uint256"
        }
      ],
      "name": "SplitCreated",
      "type": "event"
    },
    {
      "anonymous": false,
      "inputs": [
        {
          "indexed": true,
          "internalType": "address",
          "name": "user",
          "type": "address"
        },
        {
          "indexed": false,
          "internalType": "string",
          "name": "username",
          "type": "string"
        }
      ],
      "name": "UsernameSet",
      "type": "event"
    },
    {
      "inputs": [
        {
          "internalType": "uint256",
          "name": "_splitId",
          "type": "uint256"
        }
      ],
      "name": "cancelSplit",
      "outputs": [],
      "stateMutability": "nonpayable",
      "type": "function"
    },
    {
      "inputs": [
        {
          "internalType": "uint256",
          "name": "_splitId",
          "type": "uint256"
        },
        {
          "internalType": "uint256",
          "name": "_amount",
          "type": "uint256"
        }
      ],
      "name": "contribute",
      "outputs": [],
      "stateMutability": "nonpayable",
      "type": "function"
    },
    {
      "inputs": [
        {
          "internalType": "uint256",
          "name": "_totalAmount",
          "type": "uint256"
        },
        {
          "internalType": "address",
          "name": "_token",
          "type": "address"
        },
        {
          "internalType": "string",
          "name": "_description",
          "type": "string"
        },
        {
          "internalType": "uint256",
          "name": "_deadline",
          "type": "uint256"
        },
        {
          "internalType": "uint256",
          "name": "_maxParticipants",
          "type": "uint256"
        }
      ],
      "name": "createSplit",
      "outputs": [
        {
          "internalType": "uint256",
          "name": "",
          "type": "uint256"
        }
      ],
      "stateMutability": "nonpayable",
      "type": "function"
    },
    {
      "inputs": [
        {
          "internalType": "uint256",
          "name": "_splitId",
          "type": "uint256"
        },
        {
          "internalType": "address",
          "name": "_user",
          "type": "address"
        }
      ],
      "name": "getContribution",
      "outputs": [
        {
          "internalType": "uint256",
          "name": "",
          "type": "uint256"
        }
      ],
      "stateMutability": "view",
      "type": "function"
    },
    {
      "inputs": [
        {
          "internalType": "uint256",
          "name": "_splitId",
          "type": "uint256"
        }
      ],
      "name": "getParticipantCount",
      "outputs": [
        {
          "internalType": "uint256",
          "name": "",
          "type": "uint256"
        }
      ],
      "stateMutability": "view",
      "type": "function"
    },
    {
      "inputs": [
        {
          "internalType": "uint256",
          "name": "_splitId",
          "type": "uint256"
        }
      ],
      "name": "getSplit",
      "outputs": [
        {
          "internalType": "address",
          "name": "creator",
          "type": "address"
        },
        {
          "internalType": "uint256",
          "name": "totalAmount",
          "type": "uint256"
        },
        {
          "internalType": "address",
          "name": "settlementToken",
          "type": "address"
        },
        {
          "internalType": "bool",
          "name": "settled",
          "type": "bool"
        },
        {
          "internalType": "bool",
          "name": "cancelled",
          "type": "bool"
        },
        {
          "internalType": "uint256",
          "name": "amountCollected",
          "type": "uint256"
        },
        {
          "internalType": "uint256",
          "name": "deadline",
          "type": "uint256"
        },
        {
          "internalType": "string",
          "name": "description",
          "type": "string"
        }
      ],
      "stateMutability": "view",
      "type": "function"
    },
    {
      "inputs": [],
      "name": "owner",
      "outputs": [
        {
          "internalType": "address",
          "name": "",
          "type": "address"
        }
      ],
      "stateMutability": "view",
      "type": "function"
    },
    {
      "inputs": [],
      "name": "renounceOwnership",
      "outputs": [],
      "stateMutability": "nonpayable",
      "type": "function"
    },
    {
      "inputs": [
        {
          "internalType": "string",
          "name": "_username",
          "type": "string"
        }
      ],
      "name": "setUsername",
      "outputs": [],
      "stateMutability": "nonpayable",
      "type": "function"
    },
    {
      "inputs": [],
      "name": "splitCount",
      "outputs": [
        {
          "internalType": "uint256",
          "name": "",
          "type": "uint256"
        }
      ],
      "stateMutability": "view",
      "type": "function"
    },
    {
      "inputs": [
        {
          "internalType": "uint256",
          "name": "",
          "type": "uint256"
        }
      ],
      "name": "splits",
      "outputs": [
        {
          "internalType": "address",
          "name": "creator",
          "type": "address"
        },
        {
          "internalType": "uint256",
          "name": "totalAmount",
          "type": "uint256"
        },
        {
          "internalType": "address",
          "name": "settlementToken",
          "type": "address"
        },
        {
          "internalType": "bool",
          "name": "settled",
          "type": "bool"
        },
        {
          "internalType": "bool",
          "name": "cancelled",
          "type": "bool"
        },
        {
          "internalType": "uint256",
          "name": "amountCollected",
          "type": "uint256"
        },
        {
          "internalType": "uint256",
          "name": "deadline",
          "type": "uint256"
        },
        {
          "internalType": "uint256",
          "name": "maxParticipants",
          "type": "uint256"
        },
        {
          "internalType": "uint256",
          "name": "participantCount",
          "type": "uint256"
        },
        {
          "internalType": "string",
          "name": "description",
          "type": "string"
        }
      ],
      "stateMutability": "view",
      "type": "function"
    },
    {
      "inputs": [
        {
          "internalType": "address",
          "name": "newOwner",
          "type": "address"
        }
      ],
      "name": "transferOwnership",
      "outputs": [],
      "stateMutability": "nonpayable",
      "type": "function"
    },
    {
      "inputs": [
        {
          "internalType": "address",
          "name": "",
          "type": "address"
        }
      ],
      "name": "usernames",
      "outputs": [
        {
          "internalType": "string",
          "name": "",
          "type": "string"
        }
      ],
      "stateMutability": "view",
      "type": "function"
    }
  ],
  "bytecode": "0x608060405234801561000f575f80fd5b50338061003557604051631e4fbdf760e01b81525f600482015260240160405180910390fd5b61003e81610068565b5060017f9b779b17422d0df92223018b32b4d1fa46e071723d6817e2486d003becc55f00556100b7565b5f80546001600160a01b038381166001600160a01b0319831681178455604051919092169283917f8be0079c531659141344cd1fd0a4f28419497f9722a3daafe3b4186f6b6457e09190a35050565b61140f806100c45f395ff3fe608060405234801561000f575f80fd5b50600436106100cb575f3560e01c80638da5cb5b11610088578063ed59313a11610063578063ed59313a146101ba578063ee91877c146101cd578063eeef5ab1146101ed578063f2fde38b14610200575f80fd5b80638da5cb5b1461017a578063b3a0ab9814610194578063e081dbf9146101a7575f80fd5b806326825056146100cf578063514a6810146100eb578063715018a61461011257806386ae5fec1461011c578063884c30061461013e5780638c59091714610167575b5f80fd5b6100d860015481565b6040519081526020015b60405180910390f35b6100fe6100f9366004610f2c565b610213565b6040516100e2989796959493929190610f86565b61011a61031b565b005b6100d861012a366004610f2c565b5f9081526002602052604090206006015490565b61015161014c366004610f2c565b61032e565b6040516100e29a99989796959493929190610fe6565b61011a610175366004611052565b610419565b5f546040516001600160a01b0390911681526020016100e2565b61011a6101a2366004610f2c565b6106df565b6100d86101b536600461108d565b6108bb565b61011a6101c8366004611154565b6108e7565b6101e06101db36600461118e565b610944565b6040516100e291906111ae565b6100d86101fb3660046111c0565b6109db565b61011a61020e36600461118e565b610bc1565b5f818152600260208190526040822080546001820154928201546003830154600484015460078501805488978897889788978897889760609794966001600160a01b0394851696959484169460ff600160a01b8604811695600160a81b900416939291819061028190611224565b80601f01602080910402602001604051908101604052809291908181526020018280546102ad90611224565b80156102f85780601f106102cf576101008083540402835291602001916102f8565b820191905f5260205f20905b8154815290600101906020018083116102db57829003601f168201915b505050505090509850985098509850985098509850985050919395975091939597565b610323610bfb565b61032c5f610c27565b565b600260208190525f9182526040909120805460018201549282015460038301546004840154600585015460068601546007870180546001600160a01b0397881699989787169760ff600160a01b8904811698600160a81b9004169695949392909161039890611224565b80601f01602080910402602001604051908101604052809291908181526020018280546103c490611224565b801561040f5780601f106103e65761010080835404028352916020019161040f565b820191905f5260205f20905b8154815290600101906020018083116103f257829003601f168201915b505050505090508a565b610421610c76565b5f82815260026020819052604090912090810154600160a01b900460ff16156104895760405162461bcd60e51b815260206004820152601560248201527414dc1b1a5d08185b1c9958591e481cd95d1d1b1959605a1b60448201526064015b60405180910390fd5b6002810154600160a81b900460ff16156104d75760405162461bcd60e51b815260206004820152600f60248201526e14dc1b1a5d0818d85b98d95b1b1959608a1b6044820152606401610480565b806004015442111561051d5760405162461bcd60e51b815260206004820152600f60248201526e111958591b1a5b99481c185cdcd959608a1b6044820152606401610480565b5f82116105615760405162461bcd60e51b81526020600482015260126024820152710416d6f756e74206d757374206265203e20360741b6044820152606401610480565b80600501548160060154106105b85760405162461bcd60e51b815260206004820152601860248201527f4d6178207061727469636970616e7473207265616368656400000000000000006044820152606401610480565b60028101546001600160a01b03166105d281333086610c91565b335f90815260098301602052604090205460ff1661061b57335f9081526009830160205260408120805460ff191660011790556006830180549161061583611270565b91905055505b335f9081526008830160205260408120805485929061063b908490611288565b9250508190555082826003015f8282546106559190611288565b9091555050604051838152339085907fb2ed2e021651f85a4754a44651fc09ac5141bc0329ce4dfe8dd712a5d04a8b399060200160405180910390a381600101548260030154101580156106b557506002820154600160a01b900460ff16155b156106c3576106c384610ccd565b50506106db60015f805160206113ba83398151915255565b5050565b6106e7610c76565b5f81815260026020526040902080546001600160a01b0316331461073c5760405162461bcd60e51b815260206004820152600c60248201526b27b7363c9031b932b0ba37b960a11b6044820152606401610480565b6002810154600160a01b900460ff161561078a5760405162461bcd60e51b815260206004820152600f60248201526e105b1c9958591e481cd95d1d1b1959608a1b6044820152606401610480565b806004015442116107d35760405162461bcd60e51b8152602060048201526013602482015272111958591b1a5b99481b9bdd081c185cdcd959606a1b6044820152606401610480565b6002810154600160a81b900460ff16156108235760405162461bcd60e51b8152602060048201526011602482015270105b1c9958591e4818d85b98d95b1b1959607a1b6044820152606401610480565b60028101805460ff60a81b198116600160a81b1790915560038201546001600160a01b03909116906108589082903390610df4565b336001600160a01b0316837fe987fcf4401482fdb7129bf0d7336031a2f810a4c7e93711473355202665e297846003015460405161089891815260200190565b60405180910390a350506108b860015f805160206113ba83398151915255565b50565b5f8281526002602090815260408083206001600160a01b03851684526008019091529020545b92915050565b335f9081526003602052604090206108ff82826112e6565b50336001600160a01b03167f74d8e560d2e870c35b35dc882df2a5c96e2bf1cdb5ef6dd2f9cb433c8d0488538260405161093991906111ae565b60405180910390a250565b60036020525f90815260409020805461095c90611224565b80601f016020809104026020016040519081016040528092919081815260200182805461098890611224565b80156109d35780601f106109aa576101008083540402835291602001916109d3565b820191905f5260205f20905b8154815290600101906020018083116109b657829003601f168201915b505050505081565b5f6001600160a01b038516610a225760405162461bcd60e51b815260206004820152600d60248201526c24b73b30b634b2103a37b5b2b760991b6044820152606401610480565b5f8611610a665760405162461bcd60e51b81526020600482015260126024820152710416d6f756e74206d757374206265203e20360741b6044820152606401610480565b428311610aa85760405162461bcd60e51b815260206004820152601060248201526f496e76616c696420646561646c696e6560801b6044820152606401610480565b5f8211610af75760405162461bcd60e51b815260206004820152601860248201527f496e76616c6964206d6178207061727469636970616e747300000000000000006044820152606401610480565b60018054905f610b0683611270565b9091555050600180545f9081526002602081905260409091208054336001600160a01b031991821617825592810189905590810180549092166001600160a01b0388161790915560078101610b5b86826112e6565b50600481018490556005810183905560028101805461ffff60a01b191690556001546040518881523391907f2744db0bb8298097ff47d5ab9e462f61612c5b4672fed42df0365d530de838ac9060200160405180910390a3505060015495945050505050565b610bc9610bfb565b6001600160a01b038116610bf257604051631e4fbdf760e01b81525f6004820152602401610480565b6108b881610c27565b5f546001600160a01b0316331461032c5760405163118cdaa760e01b8152336004820152602401610480565b5f80546001600160a01b038381166001600160a01b0319831681178455604051919092169283917f8be0079c531659141344cd1fd0a4f28419497f9722a3daafe3b4186f6b6457e09190a35050565b610c7e610e2e565b60025f805160206113ba83398151915255565b610c9f848484846001610e5d565b610cc757604051635274afe760e01b81526001600160a01b0385166004820152602401610480565b50505050565b610cd5610c76565b5f81815260026020819052604090912090810154600160a01b900460ff1615610d325760405162461bcd60e51b815260206004820152600f60248201526e105b1c9958591e481cd95d1d1b1959608a1b6044820152606401610480565b60028101805460ff60a01b198116600160a01b17909155600182015460038301546001600160a01b03909216915f90610d6c9083906113a6565b8454909150610d869084906001600160a01b031684610df4565b8015610d9757610d97833383610df4565b83546040518381526001600160a01b039091169086907f2c35d68fdf40b18e913bb877373b4a4fc67810e2546dc5c9f9208eb8494057cb9060200160405180910390a3505050506108b860015f805160206113ba83398151915255565b610e018383836001610eca565b610e2957604051635274afe760e01b81526001600160a01b0384166004820152602401610480565b505050565b5f805160206113ba8339815191525460020361032c57604051633ee5aeb560e01b815260040160405180910390fd5b6040516323b872dd60e01b5f8181526001600160a01b038781166004528616602452604485905291602083606481808c5af1925060015f51148316610eb9578383151615610ead573d5f823e3d81fd5b5f883b113d1516831692505b604052505f60605295945050505050565b60405163a9059cbb60e01b5f8181526001600160a01b038616600452602485905291602083604481808b5af1925060015f51148316610f20578383151615610f14573d5f823e3d81fd5b5f873b113d1516831692505b60405250949350505050565b5f60208284031215610f3c575f80fd5b5035919050565b5f81518084525f5b81811015610f6757602081850181015186830182015201610f4b565b505f602082860101526020601f19601f83011685010191505092915050565b6001600160a01b03898116825260208201899052871660408201528515156060820152841515608082015260a0810184905260c0810183905261010060e082018190525f90610fd783820185610f43565b9b9a5050505050505050505050565b5f61014060018060a01b03808e1684528c6020850152808c16604085015250891515606084015288151560808401528760a08401528660c08401528560e0840152846101008401528061012084015261104181840185610f43565b9d9c50505050505050505050505050565b5f8060408385031215611063575f80fd5b50508035926020909101359150565b80356001600160a01b0381168114611088575f80fd5b919050565b5f806040838503121561109e575f80fd5b823591506110ae60208401611072565b90509250929050565b634e487b7160e01b5f52604160045260245ffd5b5f82601f8301126110da575f80fd5b813567ffffffffffffffff808211156110f5576110f56110b7565b604051601f8301601f19908116603f0116810190828211818310171561111d5761111d6110b7565b81604052838152866020858801011115611135575f80fd5b836020870160208301375f602085830101528094505050505092915050565b5f60208284031215611164575f80fd5b813567ffffffffffffffff81111561117a575f80fd5b611186848285016110cb565b949350505050565b5f6020828403121561119e575f80fd5b6111a782611072565b9392505050565b602081525f6111a76020830184610f43565b5f805f805f60a086880312156111d4575f80fd5b853594506111e460208701611072565b9350604086013567ffffffffffffffff8111156111ff575f80fd5b61120b888289016110cb565b9598949750949560608101359550608001359392505050565b600181811c9082168061123857607f821691505b60208210810361125657634e487b7160e01b5f52602260045260245ffd5b50919050565b634e487b7160e01b5f52601160045260245ffd5b5f600182016112815761128161125c565b5060010190565b808201808211156108e1576108e161125c565b601f821115610e2957805f5260205f20601f840160051c810160208510156112c05750805b601f840160051c820191505b818110156112df575f81556001016112cc565b5050505050565b815167ffffffffffffffff811115611300576113006110b7565b6113148161130e8454611224565b8461129b565b602080601f831160018114611347575f84156113305750858301515b5f19600386901b1c1916600185901b17855561139e565b5f85815260208120601f198616915b8281101561137557888601518255948401946001909101908401611356565b508582101561139257878501515f19600388901b60f8161c191681555b505060018460011b0185555b505050505050565b818103818111156108e1576108e161125c56fe9b779b17422d0df92223018b32b4d1fa46e071723d6817e2486d003becc55f00a26469706673582212208a9f6fe3b09414492f490eca07f7518d8ae0565e8bcd9453c9c687074adce23664736f6c63430008180033",
  "linkReferences": {},
  "deployedLinkReferences": {}
}