{
  "_format": "hh-sol-artifact-1",
  "contractName": "QuickSplitKarma",
  "sourceName": "contracts/KarmaNFT.sol",
  "abi": [
    {
      "inputs": [],
      "stateMutability": "nonpayable",
      "type": "constructor"
    },
    {
      "inputs": [
        {
          "internalType": "address",
          "name": "sender",
          "type": "address"
        },
        {
          "internalType": "uint256",
          "name": "tokenId",
          "type": "uint256"
        },
        {
          "internalType": "address",
          "name": "owner",
          "type": "address"
        }
      ],
      "name": "ERC721IncorrectOwner",
      "type": "error"
    },
    {
      "inputs": [
        {
          "internalType": "address",
          "name": "operator",
          "type": "address"
        },
        {
          "internalType": "uint256",
          "name": "tokenId",
          "type": "uint256"
        }
      ],
      "name": "ERC721InsufficientApproval",
      "type": "error"
    },
    {
      "inputs": [
        {
          "internalType": "address",
          "name": "approver",
          "type": "address"
        }
      ],
      "name": "ERC721InvalidApprover",
      "type": "error"
    },
    {
      "inputs": [
        {
          "internalType": "address",
          "name": "operator",
          "type": "address"
        }
      ],
      "name": "ERC721InvalidOperator",
      "type": "error"
    },
    {
      "inputs": [
        {
          "internalType": "address",
          "name": "owner",
          "type": "address"
        }
      ],
      "name": "ERC721InvalidOwner",
      "type": "error"
    },
    {
      "inputs": [
        {
          "internalType": "address",
          "name": "receiver",
          "type": "address"
        }
      ],
      "name": "ERC721InvalidReceiver",
      "type": "error"
    },
    {
      "inputs": [
        {
          "internalType": "address",
          "name": "sender",
          "type": "address"
        }
      ],
      "name": "ERC721InvalidSender",
      "type": "error"
    },
    {
      "inputs": [
        {
          "internalType": "uint256",
          "name": "tokenId",
          "type": "uint256"
        }
      ],
      "name": "ERC721NonexistentToken",
      "type": "error"
    },
    {
      "inputs": [
        {
          "internalType": "address",
          "name": "owner",
          "type": "address"
        }
      ],
      "name": "OwnableInvalidOwner",
      "type": "error"
    },
    {
      "inputs": [
        {
          "internalType": "address",
          "name": "account",
          "type": "address"
        }
      ],
      "name": "OwnableUnauthorizedAccount",
      "type": "error"
    },
    {
      "anonymous": false,
      "inputs": [
        {
          "indexed": true,
          "internalType": "address",
          "name": "owner",
          "type": "address"
        },
        {
          "indexed": true,
          "internalType": "address",
          "name": "approved",
          "type": "address"
        },
        {
          "indexed": true,
          "internalType": "uint256",
          "name": "tokenId",
          "type": "uint256"
        }
      ],
      "name": "Approval",
      "type": "event"
    },
    {
      "anonymous": false,
      "inputs": [
        {
          "indexed": true,
          "internalType": "address",
          "name": "owner",
          "type": "address"
        },
        {
          "indexed": true,
          "internalType": "address",
          "name": "operator",
          "type": "address"
        },
        {
          "indexed": false,
          "internalType": "bool",
          "name": "approved",
          "type": "bool"
        }
      ],
      "name": "ApprovalForAll",
      "type": "event"
    },
    {
      "anonymous": false,
      "inputs": [
        {
          "indexed": false,
          "internalType": "uint256",
          "name": "_fromTokenId",
          "type": "uint256"
        },
        {
          "indexed": false,
          "internalType": "uint256",
          "name": "_toTokenId",
          "type": "uint256"
        }
      ],
      "name": "BatchMetadataUpdate",
      "type": "event"
    },
    {
      "anonymous": false,
      "inputs": [
        {
          "indexed": true,
          "internalType": "address",
          "name": "user",
          "type": "address"
        },
        {
          "indexed": false,
          "internalType": "uint256",
          "name": "amount",
          "type": "uint256"
        },
        {
          "indexed": false,
          "internalType": "uint256",
          "name": "total",
          "type": "uint256"
        }
      ],
      "name": "KarmaEarned",
      "type": "event"
    },
    {
      "anonymous": false,
      "inputs": [
        {
          "indexed": false,
          "internalType": "uint256",
          "name": "_tokenId",
          "type": "uint256"
        }
      ],
      "name": "MetadataUpdate",
      "type": "event"
    },
    {
      "anonymous": false,
      "inputs": [
        {
          "indexed": true,
          "internalType": "address",
          "name": "previousOwner",
          "type": "address"
        },
        {
          "indexed": true,
          "internalType": "address",
          "name": "newOwner",
          "type": "address"
        }
      ],
      "name": "OwnershipTransferred",
      "type": "event"
    },
    {
      "anonymous": false,
      "inputs": [
        {
          "indexed": true,
          "internalType": "address",
          "name": "from",
          "type": "address"
        },
        {
          "indexed": true,
          "internalType": "address",
          "name": "to",
          "type": "address"
        },
        {
          "indexed": true,
          "internalType": "uint256",
          "name": "tokenId",
          "type": "uint256"
        }
      ],
      "name": "Transfer",
      "type": "event"
    },
    {
      "inputs": [
        {
          "internalType": "address",
          "name": "_user",
          "type": "address"
        },
        {
          "internalType": "uint256",
          "name": "_amount",
          "type": "uint256"
        }
      ],
      "name": "addKarma",
      "outputs": [],
      "stateMutability": "nonpayable",
      "type": "function"
    },
    {
      "inputs": [
        {
          "internalType": "address",
          "name": "to",
          "type": "address"
        },
        {
          "internalType": "uint256",
          "name": "tokenId",
          "type": "uint256"
        }
      ],
      "name": "approve",
      "outputs": [],
      "stateMutability": "nonpayable",
      "type": "function"
    },
    {
      "inputs": [
        {
          "internalType": "address",
          "name": "owner",
          "type": "address"
        }
      ],
      "name": "balanceOf",
      "outputs": [
        {
          "internalType": "uint256",
          "name": "",
          "type": "uint256"
        }
      ],
      "stateMutability": "view",
      "type": "function"
    },
    {
      "inputs": [
        {
          "internalType": "uint256",
          "name": "tokenId",
          "type": "uint256"
        }
      ],
      "name": "getApproved",
      "outputs": [
        {
          "internalType": "address",
          "name": "",
          "type": "address"
        }
      ],
      "stateMutability": "view",
      "type": "function"
    },
    {
      "inputs": [
        {
          "internalType": "address",
          "name": "owner",
          "type": "address"
        },
        {
          "internalType": "address",
          "name": "operator",
          "type": "address"
        }
      ],
      "name": "isApprovedForAll",
      "outputs": [
        {
          "internalType": "bool",
          "name": "",
          "type": "bool"
        }
      ],
      "stateMutability": "view",
      "type": "function"
    },
    {
      "inputs": [
        {
          "internalType": "address",
          "name": "",
          "type": "address"
        }
      ],
      "name": "karmaPoints",
      "outputs": [
        {
          "internalType": "uint256",
          "name": "",
          "type": "uint256"
        }
      ],
      "stateMutability": "view",
      "type": "function"
    },
    {
      "inputs": [],
      "name": "mint",
      "outputs": [],
      "stateMutability": "nonpayable",
      "type": "function"
    },
    {
      "inputs": [],
      "name": "name",
      "outputs": [
        {
          "internalType": "string",
          "name": "",
          "type": "string"
        }
      ],
      "stateMutability": "view",
      "type": "function"
    },
    {
      "inputs": [],
      "name": "owner",
      "outputs": [
        {
          "internalType": "address",
          "name": "",
          "type": "address"
        }
      ],
      "stateMutability": "view",
      "type": "function"
    },
    {
      "inputs": [
        {
          "internalType": "uint256",
          "name": "tokenId",
          "type": "uint256"
        }
      ],
      "name": "ownerOf",
      "outputs": [
        {
          "internalType": "address",
          "name": "",
          "type": "address"
        }
      ],
      "stateMutability": "view",
      "type": "function"
    },
    {
      "inputs": [],
      "name": "renounceOwnership",
      "outputs": [],
      "stateMutability": "nonpayable",
      "type": "function"
    },
    {
      "inputs": [
        {
          "internalType": "address",
          "name": "from",
          "type": "address"
        },
        {
          "internalType": "address",
          "name": "to",
          "type": "address"
        },
        {
          "internalType": "uint256",
          "name": "tokenId",
          "type": "uint256"
        }
      ],
      "name": "safeTransferFrom",
      "outputs": [],
      "stateMutability": "nonpayable",
      "type": "function"
    },
    {
      "inputs": [
        {
          "internalType": "address",
          "name": "from",
          "type": "address"
        },
        {
          "internalType": "address",
          "name": "to",
          "type": "address"
        },
        {
          "internalType": "uint256",
          "name": "tokenId",
          "type": "uint256"
        },
        {
          "internalType": "bytes",
          "name": "data",
          "type": "bytes"
        }
      ],
      "name": "safeTransferFrom",
      "outputs": [],
      "stateMutability": "nonpayable",
      "type": "function"
    },
    {
      "inputs": [
        {
          "internalType": "address",
          "name": "operator",
          "type": "address"
        },
        {
          "internalType": "bool",
          "name": "approved",
          "type": "bool"
        }
      ],
      "name": "setApprovalForAll",
      "outputs": [],
      "stateMutability": "nonpayable",
      "type": "function"
    },
    {
      "inputs": [
        {
          "internalType": "bytes4",
          "name": "interfaceId",
          "type": "bytes4"
        }
      ],
      "name": "supportsInterface",
      "outputs": [
        {
          "internalType": "bool",
          "name": "",
          "type": "bool"
        }
      ],
      "stateMutability": "view",
      "type": "function"
    },
    {
      "inputs": [],
      "name": "symbol",
      "outputs": [
        {
          "internalType": "string",
          "name": "",
          "type": "string"
        }
      ],
      "stateMutability": "view",
      "type": "function"
    },
    {
      "inputs": [],
      "name": "tokenCount",
      "outputs": [
        {
          "internalType": "uint256",
          "name": "",
          "type": "uint256"
        }
      ],
      "stateMutability": "view",
      "type": "function"
    },
    {
      "inputs": [
        {
          "internalType": "uint256",
          "name": "tokenId",
          "type": "uint256"
        }
      ],
      "name": "tokenURI",
      "outputs": [
        {
          "internalType": "string",
          "name": "",
          "type": "string"
        }
      ],
      "stateMutability": "view",
      "type": "function"
    },
    {
      "inputs": [
        {
          "internalType": "address",
          "name": "from",
          "type": "address"
        },
        {
          "internalType": "address",
          "name": "to",
          "type": "address"
        },
        {
          "internalType": "uint256",
          "name": "tokenId",
          "type": "uint256"
        }
      ],
      "name": "transferFrom",
      "outputs": [],
      "stateMutability": "nonpayable",
      "type": "function"
    },
    {
      "inputs": [
        {
          "internalType": "address",
          "name": "newOwner",
          "type": "address"
        }
      ],
      "name": "transferOwnership",
      "outputs": [],
      "stateMutability": "nonpayable",
      "type": "function"
    },
    {
      "inputs": [
        {
          "internalType": "address",
          "name": "",
          "type": "address"
        }
      ],
      "name": "userToTokenId",
      "outputs": [
        {
          "internalType": "uint256",
          "name": "",
          "type": "uint256"
        }
      ],
      "stateMutability": "view",
      "type": "function"
    }
  ],
  "bytecode": "0x608060405234801562000010575f80fd5b50336040518060400160405280601081526020016f517569636b53706c6974204b61726d6160801b8152506040518060400160405280600381526020016251534b60e81b815250815f9081620000679190620001a8565b506001620000768282620001a8565b5050506001600160a01b038116620000a757604051631e4fbdf760e01b81525f600482015260240160405180910390fd5b620000b281620000b9565b5062000274565b600780546001600160a01b038381166001600160a01b0319831681179093556040519116919082907f8be0079c531659141344cd1fd0a4f28419497f9722a3daafe3b4186f6b6457e0905f90a35050565b634e487b7160e01b5f52604160045260245ffd5b600181811c908216806200013357607f821691505b6020821081036200015257634e487b7160e01b5f52602260045260245ffd5b50919050565b601f821115620001a357805f5260205f20601f840160051c810160208510156200017f5750805b601f840160051c820191505b81811015620001a0575f81556001016200018b565b50505b505050565b81516001600160401b03811115620001c457620001c46200010a565b620001dc81620001d584546200011e565b8462000158565b602080601f83116001811462000212575f8415620001fa5750858301515b5f19600386901b1c1916600185901b1785556200026c565b5f85815260208120601f198616915b82811015620002425788860151825594840194600190910190840162000221565b50858210156200026057878501515f19600388901b60f8161c191681555b505060018460011b0185555b505050505050565b61164c80620002825f395ff3fe608060405234801561000f575f80fd5b5060043610610132575f3560e01c806370a08231116100b4578063a22cb46511610079578063a22cb46514610271578063af24b07b14610284578063b88d4fde146102a3578063c87b56dd146102b6578063e985e9c5146102c9578063f2fde38b146102dc575f80fd5b806370a0823114610234578063715018a6146102475780638da5cb5b1461024f57806395d89b41146102605780639f181b5e14610268575f80fd5b806323b872dd116100fa57806323b872dd146101bb5780632e3ad7f3146101ce5780633c4ac36e146101e157806342842e0e1461020e5780636352211e14610221575f80fd5b806301ffc9a71461013657806306fdde031461015e578063081812fc14610173578063095ea7b31461019e5780631249c58b146101b3575b5f80fd5b6101496101443660046110e4565b6102ef565b60405190151581526020015b60405180910390f35b610166610319565b604051610155919061114c565b61018661018136600461115e565b6103a8565b6040516001600160a01b039091168152602001610155565b6101b16101ac366004611190565b6103cf565b005b6101b16103de565b6101b16101c93660046111b8565b61048e565b6101b16101dc366004611190565b610517565b6102006101ef3660046111f1565b60096020525f908152604090205481565b604051908152602001610155565b6101b161021c3660046111b8565b6105a9565b61018661022f36600461115e565b6105c8565b6102006102423660046111f1565b6105d2565b6101b1610617565b6007546001600160a01b0316610186565b610166610628565b61020060085481565b6101b161027f36600461120a565b610637565b6102006102923660046111f1565b600a6020525f908152604090205481565b6101b16102b1366004611257565b610642565b6101666102c436600461115e565b61065a565b6101496102d736600461132c565b6106db565b6101b16102ea3660046111f1565b610708565b5f6001600160e01b03198216632483248360e11b1480610313575061031382610745565b92915050565b60605f80546103279061135d565b80601f01602080910402602001604051908101604052809291908181526020018280546103539061135d565b801561039e5780601f106103755761010080835404028352916020019161039e565b820191905f5260205f20905b81548152906001019060200180831161038157829003601f168201915b5050505050905090565b5f6103b282610794565b505f828152600460205260409020546001600160a01b0316610313565b6103da8282336107cc565b5050565b335f908152600a6020526040902054156104345760405162461bcd60e51b815260206004820152601260248201527113919508185b1c9958591e481b5a5b9d195960721b60448201526064015b60405180910390fd5b60088054905f610443836113a9565b9190505550610454336008546107d9565b600854335f908152600a6020908152604091829020839055815160608101909252602b80835261048c93929161155a9083013961083a565b565b6001600160a01b0382166104b757604051633250574960e11b81525f600482015260240161042b565b5f6104c3838333610889565b9050836001600160a01b0316816001600160a01b031614610511576040516364283d7b60e01b81526001600160a01b038086166004830152602482018490528216604482015260640161042b565b50505050565b61051f61097b565b6001600160a01b0382165f90815260096020526040812080548392906105469084906113c1565b909155506105559050826109a8565b6001600160a01b0382165f81815260096020908152604091829020548251858152918201527ff0e671ab27886625870351d32a4a3e511f11d1dd909b0b1e6152b0af8dc85d01910160405180910390a25050565b6105c383838360405180602001604052805f815250610642565b505050565b5f61031382610794565b5f6001600160a01b0382166105fc576040516322718ad960e21b81525f600482015260240161042b565b506001600160a01b03165f9081526003602052604090205490565b61061f61097b565b61048c5f610a4f565b6060600180546103279061135d565b6103da338383610aa0565b61064d84848461048e565b6105113385858585610b67565b606061066582610794565b505f61067b60408051602081019091525f815290565b90505f61068784610c8f565b905081515f03610698579392505050565b8051156106ca5781816040516020016106b29291906113d4565b60405160208183030381529060405292505050919050565b6106d384610d2e565b949350505050565b6001600160a01b039182165f90815260056020908152604080832093909416825291909152205460ff1690565b61071061097b565b6001600160a01b03811661073957604051631e4fbdf760e01b81525f600482015260240161042b565b61074281610a4f565b50565b5f6001600160e01b031982166380ac58cd60e01b148061077557506001600160e01b03198216635b5e139f60e01b145b8061031357506301ffc9a760e01b6001600160e01b0319831614610313565b5f818152600260205260408120546001600160a01b03168061031357604051637e27328960e01b81526004810184905260240161042b565b6105c38383836001610d9f565b6001600160a01b03821661080257604051633250574960e11b81525f600482015260240161042b565b5f61080e83835f610889565b90506001600160a01b038116156105c3576040516339e3563760e11b81525f600482015260240161042b565b5f8281526006602052604090206108518282611446565b506040518281527ff8e1a15aba9398e019f0b49df1a4fde98ee17ae345cb5f6b5e2c27f5033e8ce79060200160405180910390a15050565b5f828152600260205260408120546001600160a01b03908116908316156108b5576108b5818486610ea3565b6001600160a01b038116156108ef576108d05f855f80610d9f565b6001600160a01b0381165f90815260036020526040902080545f190190555b6001600160a01b0385161561091d576001600160a01b0385165f908152600360205260409020805460010190555b5f8481526002602052604080822080546001600160a01b0319166001600160a01b0389811691821790925591518793918516917fddf252ad1be2c89b69c2b068fc378daa952ba7f163c4a11628f55a4df523b3ef91a4949350505050565b6007546001600160a01b0316331461048c5760405163118cdaa760e01b815233600482015260240161042b565b6001600160a01b0381165f908152600a60209081526040808320546009909252909120546103e88111156109f8576105c3826040518060600160405280603281526020016115856032913961083a565b6101f4811115610a24576105c3826040518060600160405280602f81526020016115e8602f913961083a565b60648111156105c3576105c3826040518060600160405280603181526020016115b76031913961083a565b600780546001600160a01b038381166001600160a01b0319831681179093556040519116919082907f8be0079c531659141344cd1fd0a4f28419497f9722a3daafe3b4186f6b6457e0905f90a35050565b6001600160a01b038316610ac95760405163a9fbf51f60e01b81525f600482015260240161042b565b6001600160a01b038216610afb57604051630b61174360e31b81526001600160a01b038316600482015260240161042b565b6001600160a01b038381165f81815260056020908152604080832094871680845294825291829020805460ff191686151590811790915591519182527f17307eab39ab6107e8899845ad3d59bd9653f200f220920489ca2b5937696c31910160405180910390a3505050565b6001600160a01b0383163b15610c8857604051630a85bd0160e11b81526001600160a01b0384169063150b7a0290610ba9908890889087908790600401611502565b6020604051808303815f875af1925050508015610be3575060408051601f3d908101601f19168201909252610be09181019061153e565b60015b610c4a573d808015610c10576040519150601f19603f3d011682016040523d82523d5f602084013e610c15565b606091505b5080515f03610c4257604051633250574960e11b81526001600160a01b038516600482015260240161042b565b805160208201fd5b6001600160e01b03198116630a85bd0160e11b14610c8657604051633250574960e11b81526001600160a01b038516600482015260240161042b565b505b5050505050565b5f818152600660205260409020805460609190610cab9061135d565b80601f0160208091040260200160405190810160405280929190818152602001828054610cd79061135d565b8015610d225780601f10610cf957610100808354040283529160200191610d22565b820191905f5260205f20905b815481529060010190602001808311610d0557829003601f168201915b50505050509050919050565b6060610d3982610794565b505f610d4f60408051602081019091525f815290565b90505f815111610d6d5760405180602001604052805f815250610d98565b80610d7784610f07565b604051602001610d889291906113d4565b6040516020818303038152906040525b9392505050565b8080610db357506001600160a01b03821615155b15610e74575f610dc284610794565b90506001600160a01b03831615801590610dee5750826001600160a01b0316816001600160a01b031614155b8015610e015750610dff81846106db565b155b15610e2a5760405163a9fbf51f60e01b81526001600160a01b038416600482015260240161042b565b8115610e725783856001600160a01b0316826001600160a01b03167f8c5be1e5ebec7d5bd14f71427d1e84f3dd0314c0f7b2291e5b200ac8c7c3b92560405160405180910390a45b505b50505f90815260046020526040902080546001600160a01b0319166001600160a01b0392909216919091179055565b610eae838383610f97565b6105c3576001600160a01b038316610edc57604051637e27328960e01b81526004810182905260240161042b565b60405163177e802f60e01b81526001600160a01b03831660048201526024810182905260440161042b565b60605f610f1383610ff8565b60010190505f8167ffffffffffffffff811115610f3257610f32611243565b6040519080825280601f01601f191660200182016040528015610f5c576020820181803683370190505b5090508181016020015b5f19016f181899199a1a9b1b9c1cb0b131b232b360811b600a86061a8153600a8504945084610f6657509392505050565b5f6001600160a01b038316158015906106d35750826001600160a01b0316846001600160a01b03161480610fd05750610fd084846106db565b806106d35750505f908152600460205260409020546001600160a01b03908116911614919050565b5f8072184f03e93ff9f4daa797ed6e38ed64bf6a1f0160401b83106110365772184f03e93ff9f4daa797ed6e38ed64bf6a1f0160401b830492506040015b6d04ee2d6d415b85acef81000000008310611062576d04ee2d6d415b85acef8100000000830492506020015b662386f26fc10000831061108057662386f26fc10000830492506010015b6305f5e1008310611098576305f5e100830492506008015b61271083106110ac57612710830492506004015b606483106110be576064830492506002015b600a83106103135760010192915050565b6001600160e01b031981168114610742575f80fd5b5f602082840312156110f4575f80fd5b8135610d98816110cf565b5f5b83811015611119578181015183820152602001611101565b50505f910152565b5f81518084526111388160208601602086016110ff565b601f01601f19169290920160200192915050565b602081525f610d986020830184611121565b5f6020828403121561116e575f80fd5b5035919050565b80356001600160a01b038116811461118b575f80fd5b919050565b5f80604083850312156111a1575f80fd5b6111aa83611175565b946020939093013593505050565b5f805f606084860312156111ca575f80fd5b6111d384611175565b92506111e160208501611175565b9150604084013590509250925092565b5f60208284031215611201575f80fd5b610d9882611175565b5f806040838503121561121b575f80fd5b61122483611175565b915060208301358015158114611238575f80fd5b809150509250929050565b634e487b7160e01b5f52604160045260245ffd5b5f805f806080858703121561126a575f80fd5b61127385611175565b935061128160208601611175565b925060408501359150606085013567ffffffffffffffff808211156112a4575f80fd5b818701915087601f8301126112b7575f80fd5b8135818111156112c9576112c9611243565b604051601f8201601f19908116603f011681019083821181831017156112f1576112f1611243565b816040528281528a6020848701011115611309575f80fd5b826020860160208301375f60208483010152809550505050505092959194509250565b5f806040838503121561133d575f80fd5b61134683611175565b915061135460208401611175565b90509250929050565b600181811c9082168061137157607f821691505b60208210810361138f57634e487b7160e01b5f52602260045260245ffd5b50919050565b634e487b7160e01b5f52601160045260245ffd5b5f600182016113ba576113ba611395565b5060010190565b8082018082111561031357610313611395565b5f83516113e58184602088016110ff565b8351908301906113f98183602088016110ff565b01949350505050565b601f8211156105c357805f5260205f20601f840160051c810160208510156114275750805b601f840160051c820191505b81811015610c88575f8155600101611433565b815167ffffffffffffffff81111561146057611460611243565b6114748161146e845461135d565b84611402565b602080601f8311600181146114a7575f84156114905750858301515b5f19600386901b1c1916600185901b178555610c86565b5f85815260208120601f198616915b828110156114d5578886015182559484019460019091019084016114b6565b50858210156114f257878501515f19600388901b60f8161c191681555b5050505050600190811b01905550565b6001600160a01b03858116825284166020820152604081018390526080606082018190525f9061153490830184611121565b9695505050505050565b5f6020828403121561154e575f80fd5b8151610d98816110cf56fe68747470733a2f2f6170692e717569636b73706c69742e696e69742f6d657461646174612f6c6576656c3168747470733a2f2f6170692e717569636b73706c69742e696e69742f6d657461646174612f6c6576656c2d6469616d6f6e6468747470733a2f2f6170692e717569636b73706c69742e696e69742f6d657461646174612f6c6576656c2d73696c76657268747470733a2f2f6170692e717569636b73706c69742e696e69742f6d657461646174612f6c6576656c2d676f6c64a26469706673582212201050a56194240812d4eaa8f5a040103525200a2e8dafbc433086c2a07cb35b3f64736f6c63430008180033",
  "linkReferences": {},
  "deployedLinkReferences": {}
}